{
  "contractName": "FlightSuretyApp",
  "abi": [
    {
      "inputs": [],
      "stateMutability": "nonpayable",
      "type": "constructor"
    },
    {
      "inputs": [],
      "name": "owner",
      "outputs": [
        {
          "internalType": "address",
          "name": "",
          "type": "address"
        }
      ],
      "stateMutability": "view",
      "type": "function",
      "constant": true
    },
    {
      "inputs": [
        {
          "internalType": "address",
          "name": "addr",
          "type": "address"
        }
      ],
      "name": "getAirlineByAddress",
      "outputs": [
        {
          "components": [
            {
              "internalType": "string",
              "name": "name",
              "type": "string"
            }
          ],
          "internalType": "struct FlightSuretyApp.Airline",
          "name": "",
          "type": "tuple"
        }
      ],
      "stateMutability": "view",
      "type": "function",
      "constant": true
    }
  ],
  "bytecode": "0x608060405234801561001057600080fd5b50336000806101000a81548173ffffffffffffffffffffffffffffffffffffffff021916908373ffffffffffffffffffffffffffffffffffffffff160217905550600060405180602001604052806040518060400160405280600d81526020017f4f776e6572204169726c696e6500000000000000000000000000000000000000815250815250905080600160008060009054906101000a900473ffffffffffffffffffffffffffffffffffffffff1673ffffffffffffffffffffffffffffffffffffffff1673ffffffffffffffffffffffffffffffffffffffff1681526020019081526020016000206000820151816000019080519060200190610116929190610120565b5090505050610224565b82805461012c906101c3565b90600052602060002090601f01602090048101928261014e5760008555610195565b82601f1061016757805160ff1916838001178555610195565b82800160010185558215610195579182015b82811115610194578251825591602001919060010190610179565b5b5090506101a291906101a6565b5090565b5b808211156101bf5760008160009055506001016101a7565b5090565b600060028204905060018216806101db57607f821691505b602082108114156101ef576101ee6101f5565b5b50919050565b7f4e487b7100000000000000000000000000000000000000000000000000000000600052602260045260246000fd5b6103dd806102336000396000f3fe608060405234801561001057600080fd5b50600436106100365760003560e01c80637998c0b81461003b5780638da5cb5b1461006b575b600080fd5b610055600480360381019061005091906101c5565b610089565b604051610062919061027b565b60405180910390f35b610073610174565b6040516100809190610260565b60405180910390f35b61009161019d565b600160008373ffffffffffffffffffffffffffffffffffffffff1673ffffffffffffffffffffffffffffffffffffffff1681526020019081526020016000206040518060200160405290816000820180546100eb9061031e565b80601f01602080910402602001604051908101604052809291908181526020018280546101179061031e565b80156101645780601f1061013957610100808354040283529160200191610164565b820191906000526020600020905b81548152906001019060200180831161014757829003601f168201915b5050505050815250509050919050565b60008060009054906101000a900473ffffffffffffffffffffffffffffffffffffffff16905090565b6040518060200160405280606081525090565b6000813590506101bf81610390565b92915050565b6000602082840312156101d757600080fd5b60006101e5848285016101b0565b91505092915050565b6101f7816102b9565b82525050565b60006102088261029d565b61021281856102a8565b93506102228185602086016102eb565b61022b8161037f565b840191505092915050565b6000602083016000830151848203600086015261025382826101fd565b9150508091505092915050565b600060208201905061027560008301846101ee565b92915050565b600060208201905081810360008301526102958184610236565b905092915050565b600081519050919050565b600082825260208201905092915050565b60006102c4826102cb565b9050919050565b600073ffffffffffffffffffffffffffffffffffffffff82169050919050565b60005b838110156103095780820151818401526020810190506102ee565b83811115610318576000848401525b50505050565b6000600282049050600182168061033657607f821691505b6020821081141561034a57610349610350565b5b50919050565b7f4e487b7100000000000000000000000000000000000000000000000000000000600052602260045260246000fd5b6000601f19601f8301169050919050565b610399816102b9565b81146103a457600080fd5b5056fea264697066735822122031770962ec4de6b5c1c7cd3c4650fb66e98c1a0b5bdd25619c5c733b23f4065064736f6c63430008040033",
  "immutableReferences": {},
  "source": "// SPDX-License-Identifier: MIT\npragma solidity ^0.8.0;\n\ncontract FlightSuretyApp {\n    address private _owner;\n\n    struct Airline {\n        string name;\n    }\n    mapping(address => Airline) private _airlines;\n\n    constructor() {\n        _owner = msg.sender;\n        Airline memory ownerAirline = Airline(\"Owner Airline\");\n        _airlines[_owner] = ownerAirline;\n    }\n\n    function owner() public view returns (address) {\n        return _owner;\n    }\n\n    function getAirlineByAddress(address addr)\n        public\n        view\n        returns (Airline memory)\n    {\n        return _airlines[addr];\n    }\n}\n",
  "sourcePath": "/Users/productivity/repos/flight-insurance-dapp/truffle/contracts/FlightSuretyApp.sol",
  "compiler": {
    "name": "solc",
    "version": "0.8.4+commit.c7e474f2.Emscripten.clang"
  },
  "schemaVersion": "3.4.1",
  "updatedAt": "2021-06-05T22:56:00.223Z",
  "networkType": "ethereum",
  "devdoc": {
    "kind": "dev",
    "methods": {},
    "version": 1
  },
  "userdoc": {
    "kind": "user",
    "methods": {},
    "version": 1
  }
}