{
  "contractName": "FlightSuretyApp",
  "abi": [
    {
      "inputs": [],
      "stateMutability": "nonpayable",
      "type": "constructor"
    },
    {
      "inputs": [],
      "name": "owner",
      "outputs": [
        {
          "internalType": "address",
          "name": "",
          "type": "address"
        }
      ],
      "stateMutability": "view",
      "type": "function",
      "constant": true
    },
    {
      "inputs": [
        {
          "internalType": "address",
          "name": "_addr",
          "type": "address"
        },
        {
          "internalType": "string",
          "name": "_name",
          "type": "string"
        }
      ],
      "name": "registerAirline",
      "outputs": [],
      "stateMutability": "nonpayable",
      "type": "function"
    },
    {
      "inputs": [
        {
          "internalType": "address",
          "name": "addr",
          "type": "address"
        }
      ],
      "name": "getAirlineByAddress",
      "outputs": [
        {
          "components": [
            {
              "internalType": "string",
              "name": "name",
              "type": "string"
            }
          ],
          "internalType": "struct FlightSuretyApp.Airline",
          "name": "",
          "type": "tuple"
        }
      ],
      "stateMutability": "view",
      "type": "function",
      "constant": true
    },
    {
      "inputs": [],
      "name": "getNumAirlines",
      "outputs": [
        {
          "internalType": "uint8",
          "name": "",
          "type": "uint8"
        }
      ],
      "stateMutability": "view",
      "type": "function",
      "constant": true
    }
  ],
  "bytecode": "0x608060405234801561001057600080fd5b50336000806101000a81548173ffffffffffffffffffffffffffffffffffffffff021916908373ffffffffffffffffffffffffffffffffffffffff160217905550600060405180602001604052806040518060400160405280600d81526020017f4f776e6572204169726c696e6500000000000000000000000000000000000000815250815250905080600160008060009054906101000a900473ffffffffffffffffffffffffffffffffffffffff1673ffffffffffffffffffffffffffffffffffffffff1673ffffffffffffffffffffffffffffffffffffffff168152602001908152602001600020600082015181600001908051906020019061011692919061013c565b509050506001600260006101000a81548160ff021916908360ff16021790555050610240565b828054610148906101df565b90600052602060002090601f01602090048101928261016a57600085556101b1565b82601f1061018357805160ff19168380011785556101b1565b828001600101855582156101b1579182015b828111156101b0578251825591602001919060010190610195565b5b5090506101be91906101c2565b5090565b5b808211156101db5760008160009055506001016101c3565b5090565b600060028204905060018216806101f757607f821691505b6020821081141561020b5761020a610211565b5b50919050565b7f4e487b7100000000000000000000000000000000000000000000000000000000600052602260045260246000fd5b61095d8061024f6000396000f3fe608060405234801561001057600080fd5b506004361061004c5760003560e01c80637998c0b8146100515780637ab21cdc146100815780638da5cb5b1461009f578063ee38a749146100bd575b600080fd5b61006b600480360381019061006691906104f2565b6100d9565b604051610078919061065a565b60405180910390f35b6100896101c4565b604051610096919061067c565b60405180910390f35b6100a76101db565b6040516100b4919061061f565b60405180910390f35b6100d760048036038101906100d2919061051f565b610204565b005b6100e16103b7565b600160008373ffffffffffffffffffffffffffffffffffffffff1673ffffffffffffffffffffffffffffffffffffffff16815260200190815260200160002060405180602001604052908160008201805461013b906107d2565b80601f0160208091040260200160405190810160405280929190818152602001828054610167906107d2565b80156101b45780601f10610189576101008083540402835291602001916101b4565b820191906000526020600020905b81548152906001019060200180831161019757829003601f168201915b5050505050815250509050919050565b6000600260009054906101000a900460ff16905090565b60008060009054906101000a900473ffffffffffffffffffffffffffffffffffffffff16905090565b6005600260009054906101000a900460ff1660ff1610156102b25760008054906101000a900473ffffffffffffffffffffffffffffffffffffffff1673ffffffffffffffffffffffffffffffffffffffff163373ffffffffffffffffffffffffffffffffffffffff16146102ad576040517f08c379a00000000000000000000000000000000000000000000000000000000081526004016102a49061063a565b60405180910390fd5b61030e565b6000600160003373ffffffffffffffffffffffffffffffffffffffff1673ffffffffffffffffffffffffffffffffffffffff1681526020019081526020016000206000018054610301906107d2565b90501161030d57600080fd5b5b604051806020016040528082815250600160008473ffffffffffffffffffffffffffffffffffffffff1673ffffffffffffffffffffffffffffffffffffffff16815260200190815260200160002060008201518160000190805190602001906103789291906103ca565b509050506001600260008282829054906101000a900460ff1661039b919061071a565b92506101000a81548160ff021916908360ff1602179055505050565b6040518060200160405280606081525090565b8280546103d6906107d2565b90600052602060002090601f0160209004810192826103f8576000855561043f565b82601f1061041157805160ff191683800117855561043f565b8280016001018555821561043f579182015b8281111561043e578251825591602001919060010190610423565b5b50905061044c9190610450565b5090565b5b80821115610469576000816000905550600101610451565b5090565b600061048061047b846106bc565b610697565b90508281526020810184848401111561049c5761049b6108c7565b5b6104a7848285610790565b509392505050565b6000813590506104be81610910565b92915050565b600082601f8301126104d9576104d86108c2565b5b81356104e984826020860161046d565b91505092915050565b600060208284031215610508576105076108d1565b5b6000610516848285016104af565b91505092915050565b60008060408385031215610536576105356108d1565b5b6000610544858286016104af565b925050602083013567ffffffffffffffff811115610565576105646108cc565b5b610571858286016104c4565b9150509250929050565b61058481610751565b82525050565b6000610595826106ed565b61059f81856106f8565b93506105af81856020860161079f565b6105b8816108d6565b840191505092915050565b60006105d0601b83610709565b91506105db826108e7565b602082019050919050565b60006020830160008301518482036000860152610603828261058a565b9150508091505092915050565b61061981610783565b82525050565b6000602082019050610634600083018461057b565b92915050565b60006020820190508181036000830152610653816105c3565b9050919050565b6000602082019050818103600083015261067481846105e6565b905092915050565b60006020820190506106916000830184610610565b92915050565b60006106a16106b2565b90506106ad8282610804565b919050565b6000604051905090565b600067ffffffffffffffff8211156106d7576106d6610893565b5b6106e0826108d6565b9050602081019050919050565b600081519050919050565b600082825260208201905092915050565b600082825260208201905092915050565b600061072582610783565b915061073083610783565b92508260ff0382111561074657610745610835565b5b828201905092915050565b600061075c82610763565b9050919050565b600073ffffffffffffffffffffffffffffffffffffffff82169050919050565b600060ff82169050919050565b82818337600083830152505050565b60005b838110156107bd5780820151818401526020810190506107a2565b838111156107cc576000848401525b50505050565b600060028204905060018216806107ea57607f821691505b602082108114156107fe576107fd610864565b5b50919050565b61080d826108d6565b810181811067ffffffffffffffff8211171561082c5761082b610893565b5b80604052505050565b7f4e487b7100000000000000000000000000000000000000000000000000000000600052601160045260246000fd5b7f4e487b7100000000000000000000000000000000000000000000000000000000600052602260045260246000fd5b7f4e487b7100000000000000000000000000000000000000000000000000000000600052604160045260246000fd5b600080fd5b600080fd5b600080fd5b600080fd5b6000601f19601f8301169050919050565b7f53656e646572206973206e6f74206f776e6572206169726c696e650000000000600082015250565b61091981610751565b811461092457600080fd5b5056fea26469706673582212208613f2d9be7254c3f4453cf3c7d7be807eb2a06017849148708afde3f24481d564736f6c63430008050033",
  "immutableReferences": {},
  "source": "// SPDX-License-Identifier: MIT\npragma solidity ^0.8.0;\n\ncontract FlightSuretyApp {\n    address private _owner;\n\n    struct Airline {\n        string name;\n    }\n    mapping(address => Airline) private _airlines;\n    uint8 private _numAirlines;\n\n    constructor() {\n        _owner = msg.sender;\n        Airline memory ownerAirline = Airline(\"Owner Airline\");\n        _airlines[_owner] = ownerAirline;\n        _numAirlines = 1;\n    }\n\n    function owner() public view returns (address) {\n        return _owner;\n    }\n\n    function registerAirline(address _addr, string memory _name) public {\n        if (_numAirlines < 5)\n            require(msg.sender == _owner, \"Sender is not owner airline\");\n        else require(bytes(_airlines[msg.sender].name).length > 0);\n\n        _airlines[_addr] = Airline(_name);\n        _numAirlines += 1;\n    }\n\n    function getAirlineByAddress(address addr)\n        public\n        view\n        returns (Airline memory)\n    {\n        return _airlines[addr];\n    }\n\n    function getNumAirlines() public view returns (uint8) {\n        return _numAirlines;\n    }\n}\n",
  "sourcePath": "/Users/productivity/repos/flight-insurance-dapp/truffle/contracts/FlightSuretyApp.sol",
  "compiler": {
    "name": "solc",
    "version": "0.8.5+commit.a4f2e591.Emscripten.clang"
  },
  "schemaVersion": "3.4.1",
  "updatedAt": "2021-06-14T09:40:20.740Z",
  "networkType": "ethereum",
  "devdoc": {
    "kind": "dev",
    "methods": {},
    "version": 1
  },
  "userdoc": {
    "kind": "user",
    "methods": {},
    "version": 1
  }
}